{
  "contractName": "ItemManager",
  "abi": [
    {
      "anonymous": false,
      "inputs": [
        {
          "indexed": false,
          "internalType": "uint256",
          "name": "_itemIndex",
          "type": "uint256"
        },
        {
          "indexed": false,
          "internalType": "uint256",
          "name": "_step",
          "type": "uint256"
        },
        {
          "indexed": false,
          "internalType": "uint256",
          "name": "unique",
          "type": "uint256"
        }
      ],
      "name": "SupplyChainStep",
      "type": "event"
    },
    {
      "inputs": [
        {
          "internalType": "uint256",
          "name": "",
          "type": "uint256"
        }
      ],
      "name": "items",
      "outputs": [
        {
          "internalType": "enum ItemManager.SupplyChainSteps",
          "name": "_step",
          "type": "uint8"
        },
        {
          "internalType": "string",
          "name": "_identifier",
          "type": "string"
        },
        {
          "internalType": "uint256",
          "name": "_itemIndex",
          "type": "uint256"
        },
        {
          "internalType": "uint256",
          "name": "unique",
          "type": "uint256"
        }
      ],
      "stateMutability": "view",
      "type": "function",
      "constant": true
    },
    {
      "inputs": [
        {
          "internalType": "string",
          "name": "_identifier",
          "type": "string"
        },
        {
          "internalType": "uint256",
          "name": "_itemIndex",
          "type": "uint256"
        }
      ],
      "name": "createItem",
      "outputs": [],
      "stateMutability": "nonpayable",
      "type": "function"
    },
    {
      "inputs": [
        {
          "internalType": "uint256",
          "name": "_itemIndex",
          "type": "uint256"
        }
      ],
      "name": "triggerPayment",
      "outputs": [],
      "stateMutability": "nonpayable",
      "type": "function"
    },
    {
      "inputs": [
        {
          "internalType": "uint256",
          "name": "_itemIndex",
          "type": "uint256"
        }
      ],
      "name": "triggerDelivery",
      "outputs": [],
      "stateMutability": "nonpayable",
      "type": "function"
    },
    {
      "inputs": [
        {
          "internalType": "uint256",
          "name": "index",
          "type": "uint256"
        }
      ],
      "name": "trackOrder",
      "outputs": [
        {
          "components": [
            {
              "internalType": "enum ItemManager.SupplyChainSteps",
              "name": "_step",
              "type": "uint8"
            },
            {
              "internalType": "string",
              "name": "_identifier",
              "type": "string"
            },
            {
              "internalType": "uint256",
              "name": "_itemIndex",
              "type": "uint256"
            },
            {
              "internalType": "uint256",
              "name": "unique",
              "type": "uint256"
            }
          ],
          "internalType": "struct ItemManager.S_Item",
          "name": "",
          "type": "tuple"
        }
      ],
      "stateMutability": "view",
      "type": "function",
      "constant": true
    }
  ],
  "bytecode": "0x608060405234801561001057600080fd5b50610cb3806100206000396000f3fe608060405234801561001057600080fd5b50600436106100575760003560e01c8063609a6aaa1461005c578063800fb83f1461008c5780638c551742146100a8578063bfb231d2146100c4578063cd31831e146100f7575b600080fd5b6100766004803603810190610071919061087e565b610113565b6040516100839190610a04565b60405180910390f35b6100a660048036038101906100a1919061087e565b61026c565b005b6100c260048036038101906100bd919061082a565b61037d565b005b6100de60048036038101906100d9919061087e565b6104d4565b6040516100ee94939291906109b8565b60405180910390f35b610111600480360381019061010c919061087e565b610599565b005b61011b6106aa565b6000808381526020019081526020016000206040518060800160405290816000820160009054906101000a900460ff166002811115610183577f4e487b7100000000000000000000000000000000000000000000000000000000600052602160045260246000fd5b60028111156101bb577f4e487b7100000000000000000000000000000000000000000000000000000000600052602160045260246000fd5b81526020016001820180546101cf90610b51565b80601f01602080910402602001604051908101604052809291908181526020018280546101fb90610b51565b80156102485780601f1061021d57610100808354040283529160200191610248565b820191906000526020600020905b81548152906001019060200180831161022b57829003601f168201915b50505050508152602001600282015481526020016003820154815250509050919050565b600160008083815260200190815260200160002060000160006101000a81548160ff021916908360028111156102cb577f4e487b7100000000000000000000000000000000000000000000000000000000600052602160045260246000fd5b02179055507f3c12de01b8adb4d94d2c9d3bf753d276f824f55df3baf40ba10623dab690508a8160008084815260200190815260200160002060000160009054906101000a900460ff16600281111561034d577f4e487b7100000000000000000000000000000000000000000000000000000000600052602160045260246000fd5b6000808581526020019081526020016000206003015460405161037293929190610a26565b60405180910390a150565b600080600083815260200190815260200160002060000160006101000a81548160ff021916908360028111156103dc577f4e487b7100000000000000000000000000000000000000000000000000000000600052602160045260246000fd5b021790555081600080838152602001908152602001600020600101908051906020019061040a92919061070a565b506001600080838152602001908152602001600020600301819055507f3c12de01b8adb4d94d2c9d3bf753d276f824f55df3baf40ba10623dab690508a8160008084815260200190815260200160002060000160009054906101000a900460ff1660028111156104a3577f4e487b7100000000000000000000000000000000000000000000000000000000600052602160045260246000fd5b600080858152602001908152602001600020600301546040516104c893929190610a26565b60405180910390a15050565b60006020528060005260406000206000915090508060000160009054906101000a900460ff169080600101805461050a90610b51565b80601f016020809104026020016040519081016040528092919081815260200182805461053690610b51565b80156105835780601f1061055857610100808354040283529160200191610583565b820191906000526020600020905b81548152906001019060200180831161056657829003601f168201915b5050505050908060020154908060030154905084565b600260008083815260200190815260200160002060000160006101000a81548160ff021916908360028111156105f8577f4e487b7100000000000000000000000000000000000000000000000000000000600052602160045260246000fd5b02179055507f3c12de01b8adb4d94d2c9d3bf753d276f824f55df3baf40ba10623dab690508a8160008084815260200190815260200160002060000160009054906101000a900460ff16600281111561067a577f4e487b7100000000000000000000000000000000000000000000000000000000600052602160045260246000fd5b6000808581526020019081526020016000206003015460405161069f93929190610a26565b60405180910390a150565b6040518060800160405280600060028111156106ef577f4e487b7100000000000000000000000000000000000000000000000000000000600052602160045260246000fd5b81526020016060815260200160008152602001600081525090565b82805461071690610b51565b90600052602060002090601f016020900481019282610738576000855561077f565b82601f1061075157805160ff191683800117855561077f565b8280016001018555821561077f579182015b8281111561077e578251825591602001919060010190610763565b5b50905061078c9190610790565b5090565b5b808211156107a9576000816000905550600101610791565b5090565b60006107c06107bb84610a82565b610a5d565b9050828152602081018484840111156107d857600080fd5b6107e3848285610b0f565b509392505050565b600082601f8301126107fc57600080fd5b813561080c8482602086016107ad565b91505092915050565b60008135905061082481610c66565b92915050565b6000806040838503121561083d57600080fd5b600083013567ffffffffffffffff81111561085757600080fd5b610863858286016107eb565b925050602061087485828601610815565b9150509250929050565b60006020828403121561089057600080fd5b600061089e84828501610815565b91505092915050565b6108b081610afd565b82525050565b6108bf81610afd565b82525050565b60006108d082610ab3565b6108da8185610abe565b93506108ea818560208601610b1e565b6108f381610c41565b840191505092915050565b600061090982610ab3565b6109138185610acf565b9350610923818560208601610b1e565b61092c81610c41565b840191505092915050565b600060808301600083015161094f60008601826108a7565b506020830151848203602086015261096782826108c5565b915050604083015161097c604086018261099a565b50606083015161098f606086018261099a565b508091505092915050565b6109a381610af3565b82525050565b6109b281610af3565b82525050565b60006080820190506109cd60008301876108b6565b81810360208301526109df81866108fe565b90506109ee60408301856109a9565b6109fb60608301846109a9565b95945050505050565b60006020820190508181036000830152610a1e8184610937565b905092915050565b6000606082019050610a3b60008301866109a9565b610a4860208301856109a9565b610a5560408301846109a9565b949350505050565b6000610a67610a78565b9050610a738282610b83565b919050565b6000604051905090565b600067ffffffffffffffff821115610a9d57610a9c610c12565b5b610aa682610c41565b9050602081019050919050565b600081519050919050565b600082825260208201905092915050565b600082825260208201905092915050565b6000819050610aee82610c52565b919050565b6000819050919050565b6000610b0882610ae0565b9050919050565b82818337600083830152505050565b60005b83811015610b3c578082015181840152602081019050610b21565b83811115610b4b576000848401525b50505050565b60006002820490506001821680610b6957607f821691505b60208210811415610b7d57610b7c610be3565b5b50919050565b610b8c82610c41565b810181811067ffffffffffffffff82111715610bab57610baa610c12565b5b80604052505050565b7f4e487b7100000000000000000000000000000000000000000000000000000000600052602160045260246000fd5b7f4e487b7100000000000000000000000000000000000000000000000000000000600052602260045260246000fd5b7f4e487b7100000000000000000000000000000000000000000000000000000000600052604160045260246000fd5b6000601f19601f8301169050919050565b60038110610c6357610c62610bb4565b5b50565b610c6f81610af3565b8114610c7a57600080fd5b5056fea2646970667358221220cb4e19c6188167611d4cf7ba7b12b2a6fc7234826a984d8cc11a4aa24f1d11cd64736f6c63430008010033",
  "immutableReferences": {},
  "source": "// SPDX-License-Identifier: MIT\r\npragma solidity ^0.8.1;\r\n\r\ncontract ItemManager{\r\n\r\n    enum SupplyChainSteps{Created, Paid, Delivered}\r\n\r\n    struct S_Item {\r\n        ItemManager.SupplyChainSteps _step;\r\n        string _identifier;\r\n        uint _itemIndex;   \r\n        uint unique;     \r\n    }\r\n    mapping(uint => S_Item) public items;\r\n    \r\n    event SupplyChainStep(uint _itemIndex, uint _step, uint unique);\r\n\r\n    function createItem(string memory _identifier, uint _itemIndex) public{\r\n\r\n        items[_itemIndex]._step = SupplyChainSteps.Created;\r\n        items[_itemIndex]._identifier = _identifier;\r\n        items[_itemIndex].unique = 1;\r\n        emit SupplyChainStep(_itemIndex, uint(items[_itemIndex]._step), uint(items[_itemIndex].unique));\r\n    }\r\n\r\n    function triggerPayment(uint _itemIndex) public{\r\n        items[_itemIndex]._step = SupplyChainSteps.Paid;\r\n        emit SupplyChainStep(_itemIndex, uint(items[_itemIndex]._step), uint(items[_itemIndex].unique));\r\n    }\r\n\r\n    function triggerDelivery(uint _itemIndex) public{\r\n        items[_itemIndex]._step = SupplyChainSteps.Delivered;\r\n        emit SupplyChainStep(_itemIndex, uint(items[_itemIndex]._step), uint(items[_itemIndex].unique));\r\n    }\r\n\r\n    function trackOrder(uint index) public view returns(S_Item memory) {\r\n        return items[index];\r\n    }\r\n}",
  "sourcePath": "C:/Users/Abhishek/Desktop/solidityProjects/stirringmindsProject/contracts/ItemManager.sol",
  "compiler": {
    "name": "solc",
    "version": "0.8.1+commit.df193b15.Emscripten.clang"
  },
  "schemaVersion": "3.4.0",
  "updatedAt": "2021-04-28T03:11:18.076Z",
  "networkType": "ethereum",
  "devdoc": {
    "kind": "dev",
    "methods": {},
    "version": 1
  },
  "userdoc": {
    "kind": "user",
    "methods": {},
    "version": 1
  }
}